:020000040800F2
:1000000000200020211B0008A51A0008A71A0008DC
:1000100000000000000000000000000000000000E0
:10002000000000000000000000000000A91A000805
:100030000000000000000000AB1A0008AD1A000824
:10004000711B0008711B0008711B0008711B000860
:10005000711B0008711B0008711B0008711B000850
:10006000711B0008711B0008711B0008711B000840
:10007000711B0008711B000800000000711B0008C4
:1000800000000000711B00080000000000000000DC
:10009000711B000800000000711B0008711B0008A4
:1000A000711B0008711B0008711B0008711B000800
:1000B000711B0008B51A0008711B0008711B0008AD
:1000C00010B5064C2378002B07D1054B002B02D02E
:1000D000044800E000BF0123237010BD7C00002015
:1000E00000000000E01B0008044B10B5002B03D0FB
:1000F0000349044800E000BF10BDC04600000000F6
:1001000080000020E01B000802780B78002A03D052
:10011000013001319A42F7D0D01A704702B47146CB
:1001200049084900095C49008E4402BC7047C0463A
:10013000002243088B4274D303098B425FD3030A26
:100140008B4244D3030B8B4228D3030C8B420DD339
:10015000FF22090212BA030C8B4202D312120902C7
:1001600065D0030B8B4219D300E0090AC30B8B4205
:1001700001D3CB03C01A5241830B8B4201D38B03B3
:10018000C01A5241430B8B4201D34B03C01A524158
:10019000030B8B4201D30B03C01A5241C30A8B429B
:1001A00001D3CB02C01A5241830A8B4201D38B0286
:1001B000C01A5241430A8B4201D34B02C01A52412A
:1001C000030A8B4201D30B02C01A5241CDD2C3099C
:1001D0008B4201D3CB01C01A524183098B4201D318
:1001E0008B01C01A524143098B4201D34B01C01A03
:1001F000524103098B4201D30B01C01A5241C3087B
:100200008B4201D3CB00C01A524183088B4201D3E9
:100210008B00C01A524143088B4201D34B00C01AD5
:100220005241411A00D20146524110467047FFE741
:1002300001B5002000F006F802BDC0460029F7D045
:1002400076E770477047C046002B11D1002A0FD1C6
:10025000002900D1002802D00021C943081C07B49E
:10026000024802A14018029003BDC046D9FFFFFF1B
:1002700003B4684601B5029800F006F8019B9E465B
:1002800002B00CBC7047C046F0B557464E464546D6
:10029000DE46E0B5040083B00D00924699468B42DD
:1002A0002FD82CD04946504600F0AEF82900060061
:1002B000200000F0A9F8331A9846203B9B4600D551
:1002C00074E053465A4693401F00534642469340BB
:1002D0001E00AF4229D826D05B46A41BBD41002B8F
:1002E00000DA79E0002200230092019301235A46AC
:1002F00093400193012342469340009319E08242C8
:10030000D0D900220023009201930C9B002B01D036
:100310001C605D600098019903B03CBC9046994612
:10032000A246AB46F0BDA342D6D9002200230092DC
:1003300001934346002BE8D0FB0772081A43464658
:100340007B080EE0AB4201D1A2420CD8A41A9D4119
:10035000012024196D410021013E24184D41002E39
:1003600006D0AB42EED9013E24196D41002EF8D1E2
:100370005B460098019900196941002B22DB2B0094
:100380005A46D3402A004446E2401C005B46150012
:10039000002B2CDB26009E40330026004746BE4043
:1003A0003200801A994100900191AEE74246202325
:1003B0009B1A5246DA40414613004A468A401700CB
:1003C0001F4382E7424620239B1A2A0046469A4052
:1003D0002300F3401343D5E74246202300219B1A14
:1003E0000022009101920122DA40019282E7424606
:1003F000202326009B1ADE402F00B4469740664615
:100400003B003343C9E7C04610B5002903D100F0D3
:1004100007F8203002E0081C00F002F810BDC046CA
:100420001C2101231B04984201D3000C10391B0A24
:10043000984201D3000A08391B09984201D30009E8
:10044000043902A2105C40187047C046040302023F
:10045000010101010000000000000000FA210A4B28
:1004600070B5890005001868FFF762FE00F06AF8B1
:1004700004000120002C05D102382200290000F0E0
:1004800027F8200070BDC046780000204023084AAD
:1004900010B5116800200B431360FFF7DFFF041E47
:1004A00003D101F0BBFA200010BD0124FBE7C046D8
:1004B00000200240024A1368013313607047C046AF
:1004C00018010020014B18687047C0461801002031
:1004D00070B58901002814DA0F23C0B20340083B2D
:1004E000114A9B089B009B18032210409040FC324D
:1004F0001500114085408140DC69AC432143D9613E
:1005000070BD032583082840A840FC352E00074A0B
:100510009B009B18C02286402940814092009C5835
:10052000B44321439950EBE700ED00E000E100E027
:100530001F2318401E3B8340014A13607047C0468A
:1005400000E100E0094A431E012093420DD8C0217A
:10055000074A08485360036A09061B021B0A0B433B
:10056000036200200723906013607047FFFFFF00C5
:1005700010E000E000ED00E070B5841DE37F022B89
:1005800004D00423C363033B180070BD0E2103682D
:10059000456C1A688A431A600122196891431960F0
:1005A0001C232B4015009D40016C431D4D60E277DC
:1005B0000024826BDC771300A242E5D09047230031
:1005C000E2E70000F0B5534A0B688218541EA241BE
:1005D00085B00193002305320392019ADA4001D1DC
:1005E00005B0F0BD01259D40019A2A40009200D13E
:1005F0008DE04A6894461022644694432200013CF0
:10060000022A1FD107240F271C40A400A740DA08A4
:1006100092008218166ABE430F69A7403E431662D5
:1006200003245E00B4408268A243CC68B4402243F5
:1006300082606246D206D20F9A404468AC4322439D
:10064000426001E0012CEBD9032634005D00AC4090
:100650006246E4433240AA40076827403A430260BA
:10066000C26814408A68AA4014436246C460D2003B
:100670004DD50125284C0F27626B2A431D003540BC
:10068000AD00AF406263254A9C08A400A418A2688C
:10069000BA43A0270292FF050022B8420CD0204F97
:1006A0000132B84208D01F4F0132B84204D01E4F69
:1006B0003200B84200D0039AAA406746029D2A43FE
:1006C000A2601A4A009C1668009DE4433543FF036C
:1006D00001D435002540674615605668009D3543B6
:1006E000BF0301D435002540674655609668009DDC
:1006F0003543FF0201D43500254067469560D56833
:10070000009E2E43BF0201D425402E00D660013347
:1007100063E7C04600E4FFAF001002400000014064
:100720000004005000080050000C0050000401407C
:1007300000690840411E8841C0B270470C22184B26
:1007400010B5D9680A40082A26D00C2A06D0042AF7
:100750001AD11B68DB0621D4124810BD8A02124848
:10076000120F825C0902D868890F0131C00304D5D9
:100770000E485043FFF7DCFCEFE71B68DB0601D5B2
:100780000B48F6E70748F4E780205B6800021B048B
:100790005B0F01339840E0E70448DEE70448DCE7FC
:1007A000001002400024F400281C000800127A0007
:1007B00000093D00F0B5050087B0002802D10120F6
:1007C00007B0F0BD0C23BE4CE668E2681E408023F3
:1007D0005B021A4001920268D20741D42B689B0742
:1007E00000D587E02B68DB0628D5002E00D0D9E0A5
:1007F00023689B0502D5EB69002BE0D06268B14904
:100800006B6A0A401A43626061682A6A0902090A2F
:1008100012060A43626080225B0B013312029A4087
:100820001300E16800200A06A749120F8A5CD34032
:10083000A64A1360FFF712FE0028C1D12B681B07E0
:1008400000D5E6E02B685B0700D508E12B689B0626
:1008500000D58DE1AB6A002B00D0BCE10020AFE7F2
:10086000082E04D00C2E09D1019A002A06D0236844
:100870009B03B3D56B68002BB0D1A0E76A689A429E
:1008800011D1226813432360FFF71CFE070080226A
:10089000236892021342A1D1FFF714FEC01B642803
:1008A000F5D903208CE7A021C9028A4205D1802214
:1008B0002168D2020A432260E3E7216884480140AC
:1008C000216021680B400593059B824923680B40FA
:1008D0002360002AD8D1FFF7F5FD070080222368A6
:1008E0009202134200D179E7FFF7ECFDC01B6428A8
:1008F000F4D9D6E7EA68042E04D00C2E25D1019B4A
:10090000002B22D123685B0702D5002A00D156E7CD
:1009100061682B6970481B0201400B430921636029
:1009200023688B4313432360FFF708FFE368664A9D
:100930001B061B0FD35CD840644B18600020FFF7E8
:100940008DFD002800D14DE73AE72368002A18D032
:1009500009218B4313432360FFF7B4FD07000422F2
:100960002368134207D062682B695B491B020A4067
:100970001343636036E7FFF7A5FDC01B0228EED9DD
:100980008FE7012293432360FFF79CFD07000422B9
:100990002368134200D125E7FFF794FDC01B02280E
:1009A000F5D97EE7EB69002B20D0802322685B001D
:1009B00013432360FFF786FD07008022236892001F
:1009C00013420DD063683F4A13406A6A1343636061
:1009D00062682B6A12021B06120A134363602DE73A
:1009E000FFF770FDC01B0228E7D95AE723683B4A8E
:1009F00013402360FFF766FD070080222368920002
:100A0000134200D11AE7FFF75DFDC01B0228F4D99D
:100A100047E76A690123002A10D0226D134323653A
:100A2000FFF750FD07000222236D134200D009E7B3
:100A3000FFF748FDC01B0228F5D932E7226D9A4323
:100A40002265FFF73FFD07000222236D134200D10C
:100A5000F8E6FFF737FDC01B0228F5D921E7802310
:100A60000021A26B5B0501911A4204D1A26B1343D2
:100A7000A363012301938022194F52003B68134264
:100A800008D08022AB68520093422BD1226D1343D1
:100A900023654CE080223B68520013433B60FFF724
:100AA00011FD80235B00029003933B68039A13427D
:100AB000E7D1FFF707FD029BC01A6428F5D9F0E6DD
:100AC00000100240FF1FFFFF101C000878000020EC
:100AD000FFFFFEFFFFFFFBFFFFE0FFFFFFFEFFFF4B
:100AE00000700040002B16D1236D6C4A1340236523
:100AF000236D6B4A13402365FFF7E4FC0700802257
:100B0000236D920013422AD0FFF7DCFC654BC01B1B
:100B10009842F4D9C5E6A021C9008B420BD18023AD
:100B2000216DDB000B432365236D1A432265FFF71C
:100B3000C9FC07000EE0236D584A13402365236D5E
:100B4000574A1340A4E7FFF7BDFC564BC01B984221
:100B500000D9A6E68022236D92001342F3D0019BB8
:100B6000012B00D072E6A36B4F4A1340A3636DE6DE
:100B7000A96901234D4A002918D0A1681943A16031
:100B8000616B0B4363638023116A9B010B43136208
:100B9000FFF798FC07000222A368134200D059E631
:100BA000FFF790FCC01B0228F5D97AE6A1689943AB
:100BB000A160136A3E490B401362FFF783FC0700F4
:100BC0000222A368134200D144E6FFF77BFCC01B5E
:100BD0000228F5D965E60C2E43D0364A022B2ED1D9
:100BE0002368802613402360FFF76CFC0700B604DF
:100BF000236833421DD1296BEB6AE2680B432E490F
:100C00000A4013436A6B80251343E3608023226804
:100C10005B0413432360FFF755FC0600AD04236813
:100C20002B4200D01AE6FFF74DFC801B0228F6D9B4
:100C300037E6FFF747FCC01B0228D9D931E6236805
:100C4000802513402360FFF73DFC0600AD042368B8
:100C50002B4200D102E6FFF735FC801B0228F6D9B3
:100C60001FE61800012B00D1AAE58022E368E96A9B
:100C700052021A4001208A4200D0A1E5F022296BDD
:100C800092031A408A4200D09AE5C0200004034033
:100C9000686B181A431E9841C0B291E5FFFEFFFF32
:100CA000FFFBFFFF88130000FFFFFFEF0000014084
:100CB000FFDFFFFFFFFFFFFEFFFF02FFF7B5061E8E
:100CC000019101D10120FEBD0122514C01992368FF
:100CD00013408B4227D3326893072FD4D30735D4E0
:100CE0000123226801991A40914200D281E03268C2
:100CF000484C530700D584E0130706D5E2683369F2
:100D00004549DB000A401343E360FFF717FDE36842
:100D1000424A1B061B0FD35CD840414B1860002091
:100D2000FFF79CFBCFE72368019993430B432360B4
:100D300023681340019A9A42C4D1CCE7F020354988
:100D4000CB688343B0680343CB60C7E7314D72681B
:100D50002B68022A19D19B03B4D50321EB688B437E
:100D60001343EB60FFF7AEFB73680700022B19D14A
:100D70000C22EB681340082BB2D0FFF7A3FB294BE2
:100D8000C01B9842F4D903209DE7032A02D19B019E
:100D9000E3D497E7012A02D15B07DED492E79B05F3
:100DA000DBD48FE7032B0BD10C22EB68134093426B
:100DB00096D0FFF787FB1B4BC01B9842F4D9E2E7A4
:100DC000012B10D00C22EB68134289D0FFF77AFB7D
:100DD000144BC01B9842F5D9D5E7FFF773FB114BB5
:100DE000C01B9842CFD80C22EB681340042BF4D1DF
:100DF00076E722689A43226022681A4200D061E7AF
:100E000075E7E36808490B40F1680B43E36073E75B
:100E10000020024000100240FFC7FFFF101C000826
:100E20007800002088130000FFF8FFFF044B054AFC
:100E3000DB685B055B0FD35C034A1068D8407047E2
:100E400000100240201C000878000020044B054AD6
:100E5000DB689B045B0FD35C034A1068D840704783
:100E600000100240201C0008780000208223F7B503
:100E700002681B0105001A4247D0802300215F4C05
:100E80005B05A26B00911A4204D1A26B1343A363CA
:100E90000123009380275A4E7F0033683B426DD078
:100EA0006968C022080023689203134010408342FF
:100EB00003D1A8680240934209D0C0230A009B02D4
:100EC0001A409A4203D1236801209B0366D4C022B2
:100ED000236D9202134062D16968C0230A009B020D
:100EE0001A409A4207D1236846480340C020800335
:100EF00001400B432360236D1A43009B2265012BA5
:100F000003D1A36B404A1340A3632B68DA0706D5CD
:100F100003203A49CA6C8243E8680243CA649A07CC
:100F200006D50C203549CA6C824328690243CA643D
:100F30005A0706D531493548CA6C024068690243F0
:100F4000CA641A0706D52D493148CA6C0240A869FF
:100F50000243CA645A0606D528492E48CA6C024084
:100F6000286A0243CA6400201B0617D5234A2A496F
:100F7000D36C0B40E9690B43D3640FE033683B4308
:100F80003360FFF79FFA019033683B4288D1FFF747
:100F900099FA019BC01A6428F6D90320FEBD1140BE
:100FA0008B4202D02968890608D4A9680A40934276
:100FB00000D191E72B681B0500D48DE78022216DBD
:100FC000206D120302432265226D144B14480B401E
:100FD000024022652365CB0500D47DE7FFF772FA56
:100FE00080270600BF00236D3B4200D074E7FFF767
:100FF00069FA0C4B801B9842F5D9CEE700100240ED
:1010000000700040FFFFCFFFFFFFFFEFFFF3FFFF88
:10101000FFCFFFFFFFFFFFFBFFFFF3FFFFFFFCFF23
:10102000FFFFF7FF88130000036807491A680A40AA
:101030001A609A682331FF318A439A6020238367BC
:10104000002303667047C046DFFEFFFF70B5846F64
:1010500003000220202C41D1013800293ED0002A73
:101060003CD080259C686D01AC4204D11D69002DE7
:1010700001D1014232D11D0070352E780220012E9F
:101080002CD0013828705965190058310A804A80DF
:10109000802000211A00196640015C32844220D170
:1010A000196900291BD11849118000220121DA6732
:1010B00022329A671A689068014391608021490141
:1010C0008C421ED1196900291BD110491966902341
:1010D000002011685B000B432870136070BDFF2176
:1010E000E2E7002C04D119690029F8D07F21DBE761
:1010F000802040058442D7D119690029F6D03F21CC
:10110000D2E70349E2E7C046FF0100007911000879
:101110001911000870470000826F10B50368222A79
:1011200023D102005C325B6A12881340426D137057
:101130000200436D5A32013343651388013B9BB271
:10114000138013889BB2002B0ED10268094C1168E2
:101150002140116091682334FF34A1439160202223
:101160000366826700F012FC10BD082299690A43E9
:101170009A61F9E7DFFEFFFF826F10B50368222A4C
:1011800021D104005C34596A2488426D21401180C9
:101190000100023242655A310A88013A92B20A804D
:1011A0000A8892B2002A0DD11968094C21401960B1
:1011B00099682334FF34A143996020230266836732
:1011C00000F0E4FB10BD082299690A439A61F9E72F
:1011D000DFFEFFFF70470000F8B503680400DA691E
:1011E00018689E6811070AD120210A4200D16AE0DE
:1011F000084268D0236E2000002B5AD15AE001210A
:1012000035000D4003D190277F0038425BD00A4261
:1012100005D0C60503D51962E66F3143E1670221A7
:101220000A4206D0002D04D01962E66F49183143F6
:10123000E16704210A4206D0002D04D01962E66F4E
:1012400002393143E167110708D5810601D4002D29
:1012500004D008211962E36F1943E167E36F002BA3
:1012600028D020231A4206D0184204D0236E002B27
:1012700001D0200098472368E56F9B6820005B063B
:1012800002D408231D401AD0FFF7CEFE4021236868
:101290009A680A420FD09A68E06E8A439A600028E2
:1012A00009D01A4B8363FFF767F9002802D0E06E7C
:1012B000836B9847F8BD2000FFF78CFFFAE7FFF734
:1012C00089FFE567F6E7802149030A4206D07502E7
:1012D00004D51962200000F0A7FAEBE780210A424A
:1012E00003D0084201D0636E85E740210A42E1D075
:1012F0000842DFD01A6820008A431A6020236367FF
:1013000000236366FFF706FFD4E7C0461113000809
:10131000806A0023020010B55A321380083A138005
:10132000FFF758FF10BD0000F8B504002569A2685A
:1013300003682A436569C1692A431868794D0A43DD
:10134000284002431A605A687748784D0240E068A6
:1013500002435A60A069AB4201D0226A10439A68E6
:10136000734E324002439A60724A934213D1032271
:10137000714BDB6C1340714AD05C80231B02994295
:1013800000D092E008281ED8FEF7C8FE5860631D02
:10139000841D1D1D87006A4A934205D10C22664BAD
:1013A000DB6C1340674AE7E7AB4200D0B3E0C021F3
:1013B0008020614A0901D36CC0000B40834238D0C1
:1013C00003D8002B0AD001250DE0802000018342C4
:1013D0000ED08B42F7D1802000020DE0FFF726FDF2
:1013E0000025A84208D10023280023666366F8BDC3
:1013F0001368DB0620D55448032263685A438242AF
:10140000E1D81A038242DED30027020E01025E08F1
:1014100089197A41080011001A003B00FEF714FFF9
:101420004A4BC2184A4B9A42CDD823683D00D86037
:10143000D9E7FFF783F9D3E74648DDE7FFF7F6FC86
:10144000636840005B08C01861680BE0FFF7FEFCB2
:10145000F6E71025384B61681A684808154006D031
:101460003D4BC018FEF764FE002583B204E03B4B01
:10147000C018FEF75DFE83B2190039481039814269
:10148000A1D80F2118001B0788435B0F2168034375
:10149000CB60A8E7FFF752F9D2E7636858088023CA
:1014A0005B02D0E701250023E6E7082837D8FEF7DE
:1014B00035FE050C0F362A3636362D00FFF7B6FC02
:1014C00063685B08C01861680BE0FFF7BFFCF7E7D3
:1014D0001025194B61681A68480815400DD01A4B41
:1014E000C018FEF725FE002583B219001C481039EC
:1014F000814200D967E72168CAE7164BC018FEF79A
:1015000017FE83B2F1E7FFF719F9D9E763685808C6
:1015100080231B02D6E780231B029942C2D00125FB
:101520000023E2E7F369FFEFFFCFFFFF0048004031
:10153000FFF4FFFF0038014000100240F81B0008D4
:1015400000440040FC1B000800093D0000FDFFFFB7
:10155000FFFC0F000024F40000127A000048E801AC
:10156000EFFF0000436A30B5DA0706D50168284C62
:101570004A682240846A22434A609A0706D5016875
:10158000244C4A682240C46A22434A605A0706D55E
:101590000168214C4A682240046B22434A601A07C2
:1015A00006D501681D4C4A682240446B22434A60BC
:1015B000DA0606D501681A4C8A682240846B2243F9
:1015C0008A609A0606D50168164C8A682240C46B68
:1015D00022438A605A0610D50168134D4A68046C8C
:1015E0002A4022434A6080225203944205D14A682D
:1015F0000E4C2240446C22434A601B0606D502680A
:101600000B4953680B40816C0B43536030BDC0469F
:10161000FFFFFDFFFFFFFEFFFFFFFBFFFF7FFFFF61
:10162000FFEFFFFFFFDFFFFFFFFFEFFFFFFF9FFF6A
:10163000FFFFF7FFF8B504000E0015001F00226839
:10164000D36933409B1B59424B41AB4201D0002030
:101650001BE0069B0133F3D0FEF734FF069BC01B53
:10166000834201D3002BEAD1236808491A6803207A
:101670000A401A609A68A331FF318A439A60202396
:101680006367A367002370342370F8BD5FFEFFFF1C
:10169000F0B587B00593436F04000D0017000220DA
:1016A000202B49D10138002946D0002A44D080237C
:1016B000A2685B019A4204D12369002B01D1014247
:1016C0003AD1230070331A780220012A34D0012243
:1016D00000261A702123E6676367FEF7F3FE2300F6
:1016E00050331F80023303931F808023A26804902D
:1016F0005B019A4204D12369B34201D12E001D003F
:10170000230052331A88059B92B20093049B002A4F
:101710000AD140212000FFF78DFF00280BD12023A4
:1017200070346360207007E0002280212000FFF702
:1017300081FF002802D0032007B0F0BD2268002DF1
:101740000BD133880236DB05DB0D9362039B039AD2
:101750001B88013B9BB21380D2E72B780135936243
:10176000F4E7000073B500260400C667FEF7AAFE82
:10177000236805001B681B0715D423681B685B07DB
:101780000AD580210E4B00220093C9032B002000B4
:10179000FFF750FF002811D1202300206367A367C3
:1017A000703420700BE08021054B320000938903D8
:1017B00003002000FFF73EFF0028DED0032076BDA7
:1017C000FFFFFF0110B5041E01D1012010BD436FC2
:1017D000002B04D102007032137000F02DF9242385
:1017E000012122686367136820008B431360FFF7B1
:1017F0009BFD0128E9D0636A002B02D02000FFF78F
:10180000B1FE236807495A6820000A402A215A601D
:101810009A688A439A60012219680A431A60FFF79E
:10182000A1FFD3E7FFB7FFFF7047000030B59DB0C1
:10183000382200210EA800F0CAF9142200216846BF
:1018400000F0C5F92422002105A800F0C0F91649CE
:10185000164A0B6800241A4080231B0113430B60B7
:1018600002230E9318938023DB021A938023102205
:101870000125DB030EA812921B9311951994FEF714
:1018800099FF0F232900009368460C3B01930294B3
:1018900003940494FFF712FA042305A805930A940D
:1018A000FFF7E4FA1DB030BD00700040FFE7FFFF16
:1018B00030B589B0FEF7EAFDFFF7B8FF142200212A
:1018C00003A800F084F901220220284BA025D96A40
:1018D000ED051143D962D96A114001910199D96A84
:1018E0000143D962DB6A03A90340A0200293C0052B
:1018F000029B0392FEF766FE1D4C1E4B0C222360DA
:1019000096239B01636000232000A360E3602361B2
:101910006261A36123626362FFF754FFFA2313221B
:101920009B0015492000FFF7B3FEFA231B229B0002
:1019300012492000FFF7ACFEFA2313229B00104946
:101940002000FFF7A5FEFA2334229B000D4920005A
:10195000FFF79EFE01212800FEF7EAFE0028F9D0DD
:10196000802209492000FFF771FBF3E700100240D5
:101970001C01002000480040130000202600002029
:10198000000000204100002098000020F7B51B4C0B
:1019900006222100684600F011F919496846FEF751
:1019A000B3FB00280AD10200164E174FA11D0B7879
:1019B0000A2B09D1154B1B78002B04D18022210062
:1019C0001348FFF743FBF7BD2C2B03D10020013256
:1019D0000131ECE70F4D022A0ED0032A02D13B540D
:1019E0000130F5E7042A01D13354F9E70A4D052AFD
:1019F00002D0062AECD1054D2B54F1E798000020C7
:101A0000091C00081C0200202C02002024020020D7
:101A10001C010020240200202C0200200122054B82
:101A2000596B0A435A638022996B52050A439A63A1
:101A30007047C0460010024010B5040086B0142262
:101A4000002101A800F0C3F8134B22689A4221D16B
:101A50008022124BD202996B11480A439A630222E8
:101A6000D96A1143D962DB6A01A913400093009B34
:101A7000C0231B01019303230493013302920593B6
:101A8000FEF7A0FD00221D201100FEF721FD1D2004
:101A9000FEF74EFD06B010BD0048004000100240A9
:101AA000000400507047FEE77047704710B5FEF71E
:101AB00001FD10BD10B50248FFF78EFB10BDC046FA
:101AC0001C0100208022104B520019680A431A6042
:101AD000DA680E490A40DA601A680D490A400121A5
:101AE0001A609A688A439A601A680A490A401A601A
:101AF000DA6809490A40DA6000221A618022074B3D
:101B000012059A607047C046001002400C40FF88E2
:101B1000F6FFF6FEFFFFFBFFFFFF02FF00ED00E018
:101B20000D488546002103E00C4B5B5843500431BF
:101B30000B480C4B42189A42F6D30B4A02E00023A2
:101B400013600432094B9A42F9D3FFF7BBFF00F050
:101B500011F8FFF7ADFEFEE700200020441C00084E
:101B6000000000207C0000207C0000202C020020CF
:101B7000FEE7000070B500260C4D0D4C641BA41050
:101B8000A64209D1002600F02BF80A4D0A4C641B2E
:101B9000A410A64205D170BDB300EB58984701369A
:101BA000EEE7B300EB5898470136F2E73C1C00081B
:101BB0003C1C00083C1C0008401C0008002310B519
:101BC0009A4200D110BDCC5CC4540133F8E7030045
:101BD0008218934200D1704719700133F9E7000071
:101BE000F8B5C046F8BC08BC9E467047F8B5C0467C
:081BF000F8BC08BC9E467047DA
:101BF8000104020800101010041010100210101038
:101C0800082447504747410000000000000000003A
:101C1800010203040607080900000000010203048A
:0C1C2800030406080C1018203000000017
:081C340054E6FF7F01000000EF
:041C3C00E9000008B3
:041C4000C1000008D7
:101C440024504D544B3232302C313030302A31460E
:101C54000D0A0024504D544B3235312C3936303076
:101C64002A31370D0A0024504D544B3330302C3177
:101C74003030302C302C302C302C302A31430D0AAB
:101C84000024504D544B3331342C302C302C302C18
:101C9400312C302C302C302C302C302C302C302C5F
:101CA400302C302C302C302C302C302C302C302A52
:0C1CB40032390D0A000000000000200082
:0400000508001B21B3
:00000001FF
